{"abi":[{"type":"constructor","inputs":[{"name":"_name","type":"string","internalType":"string"},{"name":"_symbol","type":"string","internalType":"string"},{"name":"_indexToken","type":"address","internalType":"address"},{"name":"_collateralToken","type":"address","internalType":"contract IERC20"},{"name":"_oracle","type":"address","internalType":"contract IOracle"},{"name":"_borrowingPerSharePerSecond","type":"uint256","internalType":"uint256"}],"stateMutability":"nonpayable"},{"type":"function","name":"BASIS_POINTS","inputs":[],"outputs":[{"name":"","type":"uint256","internalType":"uint256"}],"stateMutability":"view"},{"type":"function","name":"MAX_BORROWING_RATE","inputs":[],"outputs":[{"name":"","type":"uint256","internalType":"uint256"}],"stateMutability":"view"},{"type":"function","name":"PRECISION","inputs":[],"outputs":[{"name":"","type":"uint256","internalType":"uint256"}],"stateMutability":"view"},{"type":"function","name":"acceptOwnership","inputs":[],"outputs":[],"stateMutability":"nonpayable"},{"type":"function","name":"allowance","inputs":[{"name":"owner","type":"address","internalType":"address"},{"name":"spender","type":"address","internalType":"address"}],"outputs":[{"name":"","type":"uint256","internalType":"uint256"}],"stateMutability":"view"},{"type":"function","name":"approve","inputs":[{"name":"spender","type":"address","internalType":"address"},{"name":"value","type":"uint256","internalType":"uint256"}],"outputs":[{"name":"","type":"bool","internalType":"bool"}],"stateMutability":"nonpayable"},{"type":"function","name":"asset","inputs":[],"outputs":[{"name":"","type":"address","internalType":"address"}],"stateMutability":"view"},{"type":"function","name":"balanceOf","inputs":[{"name":"account","type":"address","internalType":"address"}],"outputs":[{"name":"","type":"uint256","internalType":"uint256"}],"stateMutability":"view"},{"type":"function","name":"borrowingPerSharePerSecond","inputs":[],"outputs":[{"name":"","type":"uint256","internalType":"uint256"}],"stateMutability":"view"},{"type":"function","name":"convertToAssets","inputs":[{"name":"shares","type":"uint256","internalType":"uint256"}],"outputs":[{"name":"","type":"uint256","internalType":"uint256"}],"stateMutability":"view"},{"type":"function","name":"convertToShares","inputs":[{"name":"assets","type":"uint256","internalType":"uint256"}],"outputs":[{"name":"","type":"uint256","internalType":"uint256"}],"stateMutability":"view"},{"type":"function","name":"decimals","inputs":[],"outputs":[{"name":"","type":"uint8","internalType":"uint8"}],"stateMutability":"view"},{"type":"function","name":"decreasePosition","inputs":[{"name":"isLong","type":"bool","internalType":"bool"},{"name":"sizeDeltaUsd","type":"uint256","internalType":"uint256"},{"name":"collateralDelta","type":"uint256","internalType":"uint256"}],"outputs":[],"stateMutability":"nonpayable"},{"type":"function","name":"deposit","inputs":[{"name":"assets","type":"uint256","internalType":"uint256"},{"name":"receiver","type":"address","internalType":"address"}],"outputs":[{"name":"","type":"uint256","internalType":"uint256"}],"stateMutability":"nonpayable"},{"type":"function","name":"getCollateralPrice","inputs":[],"outputs":[{"name":"","type":"uint256","internalType":"uint256"}],"stateMutability":"view"},{"type":"function","name":"getIndexPrice","inputs":[],"outputs":[{"name":"","type":"uint256","internalType":"uint256"}],"stateMutability":"view"},{"type":"function","name":"getNetPnl","inputs":[{"name":"isLong","type":"bool","internalType":"bool"},{"name":"indexPrice","type":"uint256","internalType":"uint256"}],"outputs":[{"name":"pnl","type":"int256","internalType":"int256"}],"stateMutability":"view"},{"type":"function","name":"getPendingBorrowingFees","inputs":[{"name":"trader","type":"address","internalType":"address"},{"name":"isLong","type":"bool","internalType":"bool"}],"outputs":[{"name":"","type":"uint256","internalType":"uint256"}],"stateMutability":"view"},{"type":"function","name":"getPosition","inputs":[{"name":"isLong","type":"bool","internalType":"bool"},{"name":"user","type":"address","internalType":"address"}],"outputs":[{"name":"","type":"tuple","internalType":"struct MinimumPerps.Position","components":[{"name":"sizeInUsd","type":"uint256","internalType":"uint256"},{"name":"sizeInTokens","type":"uint256","internalType":"uint256"},{"name":"collateralAmount","type":"uint256","internalType":"uint256"},{"name":"lastUpdatedAt","type":"uint256","internalType":"uint256"}]}],"stateMutability":"nonpayable"},{"type":"function","name":"increasePosition","inputs":[{"name":"isLong","type":"bool","internalType":"bool"},{"name":"sizeDeltaUsd","type":"uint256","internalType":"uint256"},{"name":"collateralDelta","type":"uint256","internalType":"uint256"}],"outputs":[],"stateMutability":"nonpayable"},{"type":"function","name":"indexToken","inputs":[],"outputs":[{"name":"","type":"address","internalType":"address"}],"stateMutability":"view"},{"type":"function","name":"isPositionLiquidatable","inputs":[{"name":"trader","type":"address","internalType":"address"},{"name":"isLong","type":"bool","internalType":"bool"}],"outputs":[{"name":"","type":"bool","internalType":"bool"}],"stateMutability":"view"},{"type":"function","name":"liquidate","inputs":[{"name":"trader","type":"address","internalType":"address"},{"name":"isLong","type":"bool","internalType":"bool"}],"outputs":[],"stateMutability":"nonpayable"},{"type":"function","name":"liquidationFeeBp","inputs":[],"outputs":[{"name":"","type":"uint256","internalType":"uint256"}],"stateMutability":"view"},{"type":"function","name":"longPositions","inputs":[{"name":"","type":"address","internalType":"address"}],"outputs":[{"name":"sizeInUsd","type":"uint256","internalType":"uint256"},{"name":"sizeInTokens","type":"uint256","internalType":"uint256"},{"name":"collateralAmount","type":"uint256","internalType":"uint256"},{"name":"lastUpdatedAt","type":"uint256","internalType":"uint256"}],"stateMutability":"view"},{"type":"function","name":"maxDeposit","inputs":[{"name":"","type":"address","internalType":"address"}],"outputs":[{"name":"","type":"uint256","internalType":"uint256"}],"stateMutability":"view"},{"type":"function","name":"maxLeverage","inputs":[],"outputs":[{"name":"","type":"uint256","internalType":"uint256"}],"stateMutability":"view"},{"type":"function","name":"maxMint","inputs":[{"name":"","type":"address","internalType":"address"}],"outputs":[{"name":"","type":"uint256","internalType":"uint256"}],"stateMutability":"view"},{"type":"function","name":"maxRedeem","inputs":[{"name":"owner","type":"address","internalType":"address"}],"outputs":[{"name":"","type":"uint256","internalType":"uint256"}],"stateMutability":"view"},{"type":"function","name":"maxUtilizationRatio","inputs":[],"outputs":[{"name":"","type":"uint256","internalType":"uint256"}],"stateMutability":"view"},{"type":"function","name":"maxWithdraw","inputs":[{"name":"owner","type":"address","internalType":"address"}],"outputs":[{"name":"","type":"uint256","internalType":"uint256"}],"stateMutability":"view"},{"type":"function","name":"mint","inputs":[{"name":"shares","type":"uint256","internalType":"uint256"},{"name":"receiver","type":"address","internalType":"address"}],"outputs":[{"name":"","type":"uint256","internalType":"uint256"}],"stateMutability":"nonpayable"},{"type":"function","name":"name","inputs":[],"outputs":[{"name":"","type":"string","internalType":"string"}],"stateMutability":"view"},{"type":"function","name":"openInterestLong","inputs":[],"outputs":[{"name":"","type":"uint256","internalType":"uint256"}],"stateMutability":"view"},{"type":"function","name":"openInterestShort","inputs":[],"outputs":[{"name":"","type":"uint256","internalType":"uint256"}],"stateMutability":"view"},{"type":"function","name":"openInterestTokensLong","inputs":[],"outputs":[{"name":"","type":"uint256","internalType":"uint256"}],"stateMutability":"view"},{"type":"function","name":"openInterestTokensShort","inputs":[],"outputs":[{"name":"","type":"uint256","internalType":"uint256"}],"stateMutability":"view"},{"type":"function","name":"oracle","inputs":[],"outputs":[{"name":"","type":"address","internalType":"contract IOracle"}],"stateMutability":"view"},{"type":"function","name":"owner","inputs":[],"outputs":[{"name":"","type":"address","internalType":"address"}],"stateMutability":"view"},{"type":"function","name":"pendingOwner","inputs":[],"outputs":[{"name":"","type":"address","internalType":"address"}],"stateMutability":"view"},{"type":"function","name":"previewDeposit","inputs":[{"name":"assets","type":"uint256","internalType":"uint256"}],"outputs":[{"name":"","type":"uint256","internalType":"uint256"}],"stateMutability":"view"},{"type":"function","name":"previewMint","inputs":[{"name":"shares","type":"uint256","internalType":"uint256"}],"outputs":[{"name":"","type":"uint256","internalType":"uint256"}],"stateMutability":"view"},{"type":"function","name":"previewRedeem","inputs":[{"name":"shares","type":"uint256","internalType":"uint256"}],"outputs":[{"name":"","type":"uint256","internalType":"uint256"}],"stateMutability":"view"},{"type":"function","name":"previewWithdraw","inputs":[{"name":"assets","type":"uint256","internalType":"uint256"}],"outputs":[{"name":"","type":"uint256","internalType":"uint256"}],"stateMutability":"view"},{"type":"function","name":"redeem","inputs":[{"name":"shares","type":"uint256","internalType":"uint256"},{"name":"receiver","type":"address","internalType":"address"},{"name":"owner","type":"address","internalType":"address"}],"outputs":[{"name":"","type":"uint256","internalType":"uint256"}],"stateMutability":"nonpayable"},{"type":"function","name":"renounceOwnership","inputs":[],"outputs":[],"stateMutability":"nonpayable"},{"type":"function","name":"setBorrowingPerSharePerSecond","inputs":[{"name":"_borrowingPerSharePerSecond","type":"uint256","internalType":"uint256"}],"outputs":[],"stateMutability":"nonpayable"},{"type":"function","name":"shortPositions","inputs":[{"name":"","type":"address","internalType":"address"}],"outputs":[{"name":"sizeInUsd","type":"uint256","internalType":"uint256"},{"name":"sizeInTokens","type":"uint256","internalType":"uint256"},{"name":"collateralAmount","type":"uint256","internalType":"uint256"},{"name":"lastUpdatedAt","type":"uint256","internalType":"uint256"}],"stateMutability":"view"},{"type":"function","name":"symbol","inputs":[],"outputs":[{"name":"","type":"string","internalType":"string"}],"stateMutability":"view"},{"type":"function","name":"totalAssets","inputs":[],"outputs":[{"name":"","type":"uint256","internalType":"uint256"}],"stateMutability":"view"},{"type":"function","name":"totalCollateral","inputs":[],"outputs":[{"name":"","type":"uint256","internalType":"uint256"}],"stateMutability":"view"},{"type":"function","name":"totalDeposits","inputs":[],"outputs":[{"name":"","type":"uint256","internalType":"uint256"}],"stateMutability":"view"},{"type":"function","name":"totalSupply","inputs":[],"outputs":[{"name":"","type":"uint256","internalType":"uint256"}],"stateMutability":"view"},{"type":"function","name":"transfer","inputs":[{"name":"to","type":"address","internalType":"address"},{"name":"value","type":"uint256","internalType":"uint256"}],"outputs":[{"name":"","type":"bool","internalType":"bool"}],"stateMutability":"nonpayable"},{"type":"function","name":"transferFrom","inputs":[{"name":"from","type":"address","internalType":"address"},{"name":"to","type":"address","internalType":"address"},{"name":"value","type":"uint256","internalType":"uint256"}],"outputs":[{"name":"","type":"bool","internalType":"bool"}],"stateMutability":"nonpayable"},{"type":"function","name":"transferOwnership","inputs":[{"name":"newOwner","type":"address","internalType":"address"}],"outputs":[],"stateMutability":"nonpayable"},{"type":"function","name":"withdraw","inputs":[{"name":"assets","type":"uint256","internalType":"uint256"},{"name":"receiver","type":"address","internalType":"address"},{"name":"owner","type":"address","internalType":"address"}],"outputs":[{"name":"","type":"uint256","internalType":"uint256"}],"stateMutability":"nonpayable"},{"type":"event","name":"Approval","inputs":[{"name":"owner","type":"address","indexed":true,"internalType":"address"},{"name":"spender","type":"address","indexed":true,"internalType":"address"},{"name":"value","type":"uint256","indexed":false,"internalType":"uint256"}],"anonymous":false},{"type":"event","name":"Deposit","inputs":[{"name":"sender","type":"address","indexed":true,"internalType":"address"},{"name":"owner","type":"address","indexed":true,"internalType":"address"},{"name":"assets","type":"uint256","indexed":false,"internalType":"uint256"},{"name":"shares","type":"uint256","indexed":false,"internalType":"uint256"}],"anonymous":false},{"type":"event","name":"OwnershipTransferStarted","inputs":[{"name":"previousOwner","type":"address","indexed":true,"internalType":"address"},{"name":"newOwner","type":"address","indexed":true,"internalType":"address"}],"anonymous":false},{"type":"event","name":"OwnershipTransferred","inputs":[{"name":"previousOwner","type":"address","indexed":true,"internalType":"address"},{"name":"newOwner","type":"address","indexed":true,"internalType":"address"}],"anonymous":false},{"type":"event","name":"Transfer","inputs":[{"name":"from","type":"address","indexed":true,"internalType":"address"},{"name":"to","type":"address","indexed":true,"internalType":"address"},{"name":"value","type":"uint256","indexed":false,"internalType":"uint256"}],"anonymous":false},{"type":"event","name":"Withdraw","inputs":[{"name":"sender","type":"address","indexed":true,"internalType":"address"},{"name":"receiver","type":"address","indexed":true,"internalType":"address"},{"name":"owner","type":"address","indexed":true,"internalType":"address"},{"name":"assets","type":"uint256","indexed":false,"internalType":"uint256"},{"name":"shares","type":"uint256","indexed":false,"internalType":"uint256"}],"anonymous":false},{"type":"error","name":"AddressEmptyCode","inputs":[{"name":"target","type":"address","internalType":"address"}]},{"type":"error","name":"AddressInsufficientBalance","inputs":[{"name":"account","type":"address","internalType":"address"}]},{"type":"error","name":"ERC20InsufficientAllowance","inputs":[{"name":"spender","type":"address","internalType":"address"},{"name":"allowance","type":"uint256","internalType":"uint256"},{"name":"needed","type":"uint256","internalType":"uint256"}]},{"type":"error","name":"ERC20InsufficientBalance","inputs":[{"name":"sender","type":"address","internalType":"address"},{"name":"balance","type":"uint256","internalType":"uint256"},{"name":"needed","type":"uint256","internalType":"uint256"}]},{"type":"error","name":"ERC20InvalidApprover","inputs":[{"name":"approver","type":"address","internalType":"address"}]},{"type":"error","name":"ERC20InvalidReceiver","inputs":[{"name":"receiver","type":"address","internalType":"address"}]},{"type":"error","name":"ERC20InvalidSender","inputs":[{"name":"sender","type":"address","internalType":"address"}]},{"type":"error","name":"ERC20InvalidSpender","inputs":[{"name":"spender","type":"address","internalType":"address"}]},{"type":"error","name":"ERC4626ExceededMaxDeposit","inputs":[{"name":"receiver","type":"address","internalType":"address"},{"name":"assets","type":"uint256","internalType":"uint256"},{"name":"max","type":"uint256","internalType":"uint256"}]},{"type":"error","name":"ERC4626ExceededMaxMint","inputs":[{"name":"receiver","type":"address","internalType":"address"},{"name":"shares","type":"uint256","internalType":"uint256"},{"name":"max","type":"uint256","internalType":"uint256"}]},{"type":"error","name":"ERC4626ExceededMaxRedeem","inputs":[{"name":"owner","type":"address","internalType":"address"},{"name":"shares","type":"uint256","internalType":"uint256"},{"name":"max","type":"uint256","internalType":"uint256"}]},{"type":"error","name":"ERC4626ExceededMaxWithdraw","inputs":[{"name":"owner","type":"address","internalType":"address"},{"name":"assets","type":"uint256","internalType":"uint256"},{"name":"max","type":"uint256","internalType":"uint256"}]},{"type":"error","name":"EmptyPosition","inputs":[{"name":"sizeInUsd","type":"uint256","internalType":"uint256"},{"name":"sizeInTokens","type":"uint256","internalType":"uint256"},{"name":"collateralAmount","type":"uint256","internalType":"uint256"}]},{"type":"error","name":"FailedInnerCall","inputs":[]},{"type":"error","name":"InsufficientCollateralForBorrowingFees","inputs":[{"name":"borrowingFees","type":"uint256","internalType":"uint256"},{"name":"collateralAmount","type":"uint256","internalType":"uint256"}]},{"type":"error","name":"InsufficientCollateralForLoss","inputs":[{"name":"positionLoss","type":"uint256","internalType":"uint256"},{"name":"collateralAmount","type":"uint256","internalType":"uint256"}]},{"type":"error","name":"InvalidBorrowingFeeRate","inputs":[{"name":"_borrowingPerSharePerSecond","type":"uint256","internalType":"uint256"}]},{"type":"error","name":"MathOverflowedMulDiv","inputs":[]},{"type":"error","name":"MaxUtilizationBreached","inputs":[{"name":"maxUtilizableDeposits","type":"uint256","internalType":"uint256"},{"name":"totalReserved","type":"uint256","internalType":"uint256"}]},{"type":"error","name":"OwnableInvalidOwner","inputs":[{"name":"owner","type":"address","internalType":"address"}]},{"type":"error","name":"OwnableUnauthorizedAccount","inputs":[{"name":"account","type":"address","internalType":"address"}]},{"type":"error","name":"PositionIsLiquidatable","inputs":[]},{"type":"error","name":"PositionNotLiquidatable","inputs":[]},{"type":"error","name":"SafeCastOverflowedIntToUint","inputs":[{"name":"value","type":"int256","internalType":"int256"}]},{"type":"error","name":"SafeCastOverflowedUintToInt","inputs":[{"name":"value","type":"uint256","internalType":"uint256"}]},{"type":"error","name":"SafeERC20FailedOperation","inputs":[{"name":"token","type":"address","internalType":"address"}]},{"type":"error","name":"TraderPnlExceedsDeposits","inputs":[]}],"bytecode":{"object":"0x60c06040526c064f964e68233a76f5200000006011556cfc6f7c40458122964d0000000060125560c86013553480156200003857600080fd5b5060405162002ed938038062002ed98339810160408190526200005b916200037b565b82868660036200006c8382620004c0565b5060046200007b8282620004c0565b50505060008062000092836200010c60201b60201c565b9150915081620000a4576012620000a6565b805b60ff1660a05250506001600160a01b0316608052620000c533620001f1565b600880546001600160a01b038087166001600160a01b031992831617909255600780549285169290911691909117905562000100816200020f565b505050505050620005c4565b60408051600481526024810182526020810180516001600160e01b031663313ce56760e01b17905290516000918291829182916001600160a01b0387169162000155916200058c565b600060405180830381855afa9150503d806000811462000192576040519150601f19603f3d011682016040523d82523d6000602084013e62000197565b606091505b5091509150818015620001ac57506020815110155b15620001e457600081806020019051810190620001ca9190620005aa565b905060ff8111620001e2576001969095509350505050565b505b5060009485945092505050565b600680546001600160a01b03191690556200020c8162000246565b50565b68abe62d2c5b05bd033f8111156200024157604051635f28e0eb60e11b81526004810182905260240160405180910390fd5b601455565b600580546001600160a01b038381166001600160a01b0319831681179093556040519116919082907f8be0079c531659141344cd1fd0a4f28419497f9722a3daafe3b4186f6b6457e090600090a35050565b634e487b7160e01b600052604160045260246000fd5b60005b83811015620002cb578181015183820152602001620002b1565b50506000910152565b600082601f830112620002e657600080fd5b81516001600160401b038082111562000303576200030362000298565b604051601f8301601f19908116603f011681019082821181831017156200032e576200032e62000298565b816040528381528660208588010111156200034857600080fd5b6200035b846020830160208901620002ae565b9695505050505050565b6001600160a01b03811681146200020c57600080fd5b60008060008060008060c087890312156200039557600080fd5b86516001600160401b0380821115620003ad57600080fd5b620003bb8a838b01620002d4565b97506020890151915080821115620003d257600080fd5b50620003e189828a01620002d4565b9550506040870151620003f48162000365565b6060880151909450620004078162000365565b60808801519093506200041a8162000365565b8092505060a087015190509295509295509295565b600181811c908216806200044457607f821691505b6020821081036200046557634e487b7160e01b600052602260045260246000fd5b50919050565b601f821115620004bb576000816000526020600020601f850160051c81016020861015620004965750805b601f850160051c820191505b81811015620004b757828155600101620004a2565b5050505b505050565b81516001600160401b03811115620004dc57620004dc62000298565b620004f481620004ed84546200042f565b846200046b565b602080601f8311600181146200052c5760008415620005135750858301515b600019600386901b1c1916600185901b178555620004b7565b600085815260208120601f198616915b828110156200055d578886015182559484019460019091019084016200053c565b50858210156200057c5787850151600019600388901b60f8161c191681555b5050505050600190811b01905550565b60008251620005a0818460208701620002ae565b9190910192915050565b600060208284031215620005bd57600080fd5b5051919050565b60805160a0516128c5620006146000396000610ac90152600081816104cb01528181610f350152818161124e015281816116340152818161180f01528181611e980152611fbf01526128c56000f3fe608060405234801561001057600080fd5b50600436106103835760003560e01c80638055c2cc116101de578063c6e6f5921161010f578063df7878c4116100ad578063e7d015f21161007c578063e7d015f2146107c5578063ef8b30f7146106ee578063f2fde38b146107d8578063f7683bbc146107eb57600080fd5b8063df7878c41461078f578063e1f1c4a7146107a2578063e30c3978146107ab578063e566a0a2146107bc57600080fd5b8063d3aebfea116100e9578063d3aebfea1461071d578063d591bdc114610730578063d905777e14610743578063dd62ed3e1461075657600080fd5b8063c6e6f592146106ee578063ce96cb7714610701578063d2f2b0401461071457600080fd5b8063abdc55411161017c578063b3d7f6b911610156578063b3d7f6b9146106b5578063b460af94146106c8578063ba087652146106db578063c63d75b61461050357600080fd5b8063abdc554114610667578063ac511bc014610677578063ae3302c2146106ac57600080fd5b806395d89b41116101b857806395d89b411461062557806395e98e2f1461062d578063a9059cbb14610640578063aaf5eb681461065357600080fd5b80638055c2cc146105ac5780638da5cb5b1461060157806394bf804d1461061257600080fd5b806338d52e0f116102b857806370a082311161025657806379ba50971161023057806379ba50971461057f5780637d245d1f146105875780637d882097146105905780637dc0d1d01461059957600080fd5b806370a0823114610545578063715018a61461056e578063794a97471461057657600080fd5b80634cdad506116102925780634cdad506146103fe57806358c0994a1461052157806367592602146105295780636e553f651461053257600080fd5b806338d52e0f146104c9578063402d267d146105035780634ac8eb5f1461051857600080fd5b806318160ddd1161032557806329f1ee19116102ff57806329f1ee191461048a578063310a224014610493578063313ce5671461049c5780633199ab01146104b657600080fd5b806318160ddd1461045a57806323b872dd1461046257806328690da81461047557600080fd5b806307a2d13a1161036157806307a2d13a146103fe578063095ea7b3146104115780630a28a47714610434578063149c94041461044757600080fd5b806301e1d1141461038857806305ebef27146103a357806306fdde03146103e9575b600080fd5b6103906107f3565b6040519081526020015b60405180910390f35b6103b66103b136600461232d565b6108b4565b60405161039a91908151815260208083015190820152604080830151908201526060918201519181019190915260800190565b6103f1610952565b60405161039a9190612386565b61039061040c3660046123b9565b6109e4565b61042461041f3660046123d2565b6109f1565b604051901515815260200161039a565b6103906104423660046123b9565b610a09565b6103906104553660046123fc565b610a16565b600254610390565b61042461047036600461241a565b610a62565b610488610483366004612456565b610a86565b005b610390600d5481565b610390600b5481565b6104a4610ac1565b60405160ff909116815260200161039a565b6104886104c436600461248b565b610af2565b7f00000000000000000000000000000000000000000000000000000000000000005b6040516001600160a01b03909116815260200161039a565b6103906105113660046124c2565b5060001990565b61039060095481565b610390610b8c565b61039060145481565b6103906105403660046124dd565b610c02565b6103906105533660046124c2565b6001600160a01b031660009081526020819052604090205490565b610488610c36565b610390600c5481565b610488610c4a565b61039060115481565b610390600a5481565b6007546104eb906001600160a01b031681565b6105e16105ba3660046124c2565b60106020526000908152604090208054600182015460028301546003909301549192909184565b60408051948552602085019390935291830152606082015260800161039a565b6005546001600160a01b03166104eb565b6103906106203660046124dd565b610c8e565b6103f1610cac565b61042461063b36600461248b565b610cbb565b61042461064e3660046123d2565b610e1e565b6103906c0c9f2c9cd04674edea4000000081565b61039068abe62d2c5b05bd033f81565b6105e16106853660046124c2565b600f6020526000908152604090208054600182015460028301546003909301549192909184565b61039060125481565b6103906106c33660046123b9565b610e2c565b6103906106d6366004612500565b610e39565b6103906106e9366004612500565b610e91565b6103906106fc3660046123b9565b610ee0565b61039061070f3660046124c2565b610eed565b610390600e5481565b61048861072b3660046123b9565b610f11565b61048861073e366004612456565b610f22565b6103906107513660046124c2565b61112d565b61039061076436600461253c565b6001600160a01b03918216600090815260016020908152604080832093909416825291909152205490565b61039061079d36600461248b565b61114b565b61039061271081565b6006546001600160a01b03166104eb565b61039060135481565b6008546104eb906001600160a01b031681565b6104886107e63660046124c2565b6111c3565b610390611234565b600a5460009081610802610b8c565b90506000610811600183610a16565b90506000610820600084610a16565b9050600061083461082f611234565b611287565b61083e838561256e565b61084891906125ac565b90506000811315610899578461085d826112b8565b111561087c57604051631590d67f60e21b815260040160405180910390fd5b610885816112b8565b61088f90866125da565b9550505050505090565b6108aa6108a5826125ed565b6112b8565b61088f9086612609565b6108df6040518060800160405280600081526020016000815260200160008152602001600081525090565b82610901576001600160a01b038216600090815260106020526040902061091a565b6001600160a01b0382166000908152600f602052604090205b604080516080810182528254815260018301546020820152600283015491810191909152600390910154606082015290505b92915050565b6060600380546109619061261c565b80601f016020809104026020016040519081016040528092919081815260200182805461098d9061261c565b80156109da5780601f106109af576101008083540402835291602001916109da565b820191906000526020600020905b8154815290600101906020018083116109bd57829003601f168201915b5050505050905090565b600061094c8260006112de565b6000336109ff818585611318565b5060019392505050565b600061094c826001611325565b60008215610a4057600b5482600d54610a2f9190612656565b610a39919061266d565b905061094c565b81600e54610a4e9190612656565b600c54610a5b919061266d565b9392505050565b600033610a70858285611355565b610a7b8585856113ba565b506001949350505050565b610a94338484846000611419565b610a9e3384610cbb565b15610abc57604051630ac5ef9360e21b815260040160405180910390fd5b505050565b6000610aed817f0000000000000000000000000000000000000000000000000000000000000000612694565b905090565b610afc8282610cbb565b610b1957604051636415f95960e01b815260040160405180910390fd5b600081610b27576010610b2a565b600f5b6001600160a01b03841660009081526020828152604080832081516080810183528154808252600180840154958301959095526002830154938201939093526003909101546060820152939450610b8692879287929190611419565b50505050565b600754600854604051630681320d60e51b81526001600160a01b039182166004820152600092919091169063d02641a0906024015b602060405180830381865afa158015610bde573d6000803e3d6000fd5b505050506040513d601f19601f82011682018060405250810190610aed91906126ad565b6000600019610c15565b60405180910390fd5b6000610c2085610ee0565b9050610c2e33858784611841565b949350505050565b610c3e61186a565b610c486000611897565b565b60065433906001600160a01b03168114610c825760405163118cdaa760e01b81526001600160a01b0382166004820152602401610c0c565b610c8b81611897565b50565b60006000196000610c9e85610e2c565b9050610c2e33858388611841565b6060600480546109619061261c565b60008082610ce0576001600160a01b0384166000908152601060205260409020610cf9565b6001600160a01b0384166000908152600f602052604090205b604080516080810182528254808252600184015460208301526002840154928201929092526003909201546060830152909150600003610d3d57600091505061094c565b6000610d47611234565b8260400151610d569190612656565b90506000610d63836118b0565b9050808211610d78576001935050505061094c565b610d8281836125da565b91506000610d9584878660000151611908565b50905060008113610dd4576000610dab826119f7565b9050808411610dc25760019550505050505061094c565b610dcc81856125da565b935050610dea565b610ddd816119f7565b610de79084612609565b92505b60125484518490610e08906c0c9f2c9cd04674edea40000000612656565b610e1291906126e7565b11979650505050505050565b6000336109ff8185856113ba565b600061094c8260016112de565b600080610e4583610eed565b905080851115610e6e57828582604051633fa733bb60e21b8152600401610c0c939291906126c6565b6000610e7986610a09565b9050610e883386868985611a0a565b95945050505050565b600080610e9d8361112d565b905080851115610ec657828582604051632e52afbb60e21b8152600401610c0c939291906126c6565b6000610ed1866109e4565b9050610e88338686848a611a0a565b600061094c826000611325565b6001600160a01b03811660009081526020819052604081205461094c9060006112de565b610f1961186a565b610c8b81611a3e565b8015610f5d57610f5d6001600160a01b037f000000000000000000000000000000000000000000000000000000000000000016333084611a70565b600083610f6b576010610f6e565b600f5b33600090815260208281526040808320815160808101835281548152600182015493810193909352600281015491830191909152600301546060820152919250610fb6610b8c565b9050600086610fce57610fc98683611ad7565b610fd8565b610fd882876126e7565b90506000610fe5846118b0565b90508584604001818151610ff99190612609565b90525083518790859061100d908390612609565b905250602084018051839190611024908390612609565b90525060408401805182919061103b9083906125da565b905250600a8054829190600090611053908490612609565b909155505042606085015261106784611b20565b336000908152602086815260408083208751815591870151600183015586015160028201556060860151600390910155600980548892906110a9908490612609565b909155505087156110ea5786600b60008282546110c69190612609565b9250508190555081600d60008282546110df9190612609565b9091555061111b9050565b86600c60008282546110fc9190612609565b9250508190555081600e60008282546111159190612609565b90915550505b611123611b78565b5050505050505050565b6001600160a01b03811660009081526020819052604081205461094c565b60008082611170576001600160a01b0384166000908152601060205260409020611189565b6001600160a01b0384166000908152600f602052604090205b60408051608081018252825481526001830154602082015260028301549181019190915260039091015460608201529050610c2e816118b0565b6111cb61186a565b600680546001600160a01b0383166001600160a01b031990911681179091556111fc6005546001600160a01b031690565b6001600160a01b03167f38d16b8cac22d99fc7c124b9cd0de2d3fa1faef420bfe791d8c362d765e2270060405160405180910390a350565b600754604051630681320d60e51b81526001600160a01b037f000000000000000000000000000000000000000000000000000000000000000081166004830152600092169063d02641a090602401610bc1565b60006001600160ff1b038211156112b45760405163123baf0360e11b815260048101839052602401610c0c565b5090565b6000808212156112b457604051635467221960e11b815260048101839052602401610c0c565b6000610a5b6112eb6107f3565b6112f6906001612609565b6113026000600a6127df565b60025461130f9190612609565b85919085611c27565b610abc8383836001611c76565b6000610a5b61133582600a6127df565b6002546113429190612609565b61134a6107f3565b61130f906001612609565b6001600160a01b038381166000908152600160209081526040808320938616835292905220546000198114610b8657818110156113ab57828183604051637dc7a0d960e11b8152600401610c0c939291906126c6565b610b8684848484036000611c76565b6001600160a01b0383166113e457604051634b637e8f60e11b815260006004820152602401610c0c565b6001600160a01b03821661140e5760405163ec442f0560e01b815260006004820152602401610c0c565b610abc838383611d4b565b60008461142757601061142a565b600f5b6001600160a01b03871660009081526020828152604080832081516080810183528154815260018201549381019390935260028101549183019190915260030154606082015291925061147b611234565b905060008061148b848a8a611908565b91509150600061149a856118b0565b905081856020018181516114ae91906125da565b9052508451899086906114c29083906125da565b9052506040850180518991906114d99083906125da565b9052506040850151811180156114ec5750865b1561151c5750604084018051600091829052600a805491928392611511908490612609565b909155506115829050565b808560400151101561155257808560400151604051630286b57760e51b8152600401610c0c929190918252602082015260400190565b808560400181815161156491906125da565b905250600a805482919060009061157c908490612609565b90915550505b89156115be5788600b600082825461159a91906125da565b9250508190555081600d60008282546115b391906125da565b909155506115ef9050565b88600c60008282546115d091906125da565b9250508190555081600e60008282546115e991906125da565b90915550505b8615611666576000612710601354876040015161160c9190612656565b61161691906126e7565b9050808660400181815161162a91906125da565b90525061166433827f00000000000000000000000000000000000000000000000000000000000000005b6001600160a01b03169190611e62565b505b60008312156117145760008461167b856119f7565b61168591906126e7565b90508780156116975750808660400151105b156116ad575060408501805160009091526116e3565b80866040015110156116e357808660400151604051630216b9a160e21b8152600401610c0c929190918252602082015260400190565b80866040018181516116f591906125da565b905250600a805482919060009061170d908490612609565b9091555050505b6000808413156117565784611728856112b8565b61173291906126e7565b61173c9082612609565b905080600a600082825461175091906125da565b90915550505b8815611769576117668982612609565b90505b6020860151158061177957508551155b156117c157604086015161178d9082612609565b6001600160a01b038d1660009081526020899052604081208181556001810182905560028101829055600301559050611802565b42606087019081526001600160a01b038d16600090815260208981526040918290208951815590890151600182015590880151600282015590516003909101555b8015611833576118338c827f0000000000000000000000000000000000000000000000000000000000000000611654565b505050505050505050505050565b61184d84848484611e93565b81600a600082825461185f9190612609565b909155505050505050565b6005546001600160a01b03163314610c485760405163118cdaa760e01b8152336004820152602401610c0c565b600680546001600160a01b0319169055610c8b81611f17565b6000806c0c9f2c9cd04674edea400000006014548460600151426118d491906125da565b85516118e09190612656565b6118ea9190612656565b6118f491906126e7565b90506118fe611234565b610a5b90826126e7565b6000806000611927611918610b8c565b876020015161082f9190612656565b905060008561194d578161193e8860000151611287565b611948919061266d565b611962565b865161195890611287565b611962908361266d565b90506119718760000151611287565b61197a86611287565b61198490836127ee565b61198e91906125ac565b9350848760000151036119a757866020015192506119ed565b85156119ce576119c78588602001516119c09190612656565b8851611f69565b92506119ed565b865160208801516119e0908790612656565b6119ea91906126e7565b92505b5050935093915050565b6000808212156112b4578160000361094c565b81600a6000828254611a1c91906125da565b90915550611a2f90508585858585611f8c565b611a37611b78565b5050505050565b68abe62d2c5b05bd033f811115611a6b57604051635f28e0eb60e11b815260048101829052602401610c0c565b601455565b6040516001600160a01b038481166024830152838116604483015260648201839052610b869186918216906323b872dd906084015b604051602081830303815290604052915060e01b6020820180516001600160e01b03838183161783525050505061204c565b600081600003611aeb57610a3982846126e7565b8215611b175781611afd6001856125da565b611b0791906126e7565b611b12906001612609565b610a5b565b50600092915050565b80511580611b3057506020810151155b80611b3d57506040810151155b15610c8b578051602082015160408084015190516338b3364f60e21b8152600481019390935260248301919091526044820152606401610c0c565b6000611b82610b8c565b90506000611b8e611234565b90506000600c549050600083600d54611ba79190612656565b90506000611bb58383612609565b9050600084600a54611bc79190612656565b905060006c0c9f2c9cd04674edea4000000060115483611be79190612656565b611bf191906126e7565b905080831115611c1e576040516319a6810b60e11b81526004810182905260248101849052604401610c0c565b50505050505050565b600080611c358686866120af565b9050611c4083612173565b8015611c5c575060008480611c5757611c57612596565b868809115b15610e8857611c6c600182612609565b9695505050505050565b6001600160a01b038416611ca05760405163e602df0560e01b815260006004820152602401610c0c565b6001600160a01b038316611cca57604051634a1406b160e11b815260006004820152602401610c0c565b6001600160a01b0380851660009081526001602090815260408083209387168352929052208290558015610b8657826001600160a01b0316846001600160a01b03167f8c5be1e5ebec7d5bd14f71427d1e84f3dd0314c0f7b2291e5b200ac8c7c3b92584604051611d3d91815260200190565b60405180910390a350505050565b6001600160a01b038316611d76578060026000828254611d6b9190612609565b90915550611dd59050565b6001600160a01b03831660009081526020819052604090205481811015611db65783818360405163391434e360e21b8152600401610c0c939291906126c6565b6001600160a01b03841660009081526020819052604090209082900390555b6001600160a01b038216611df157600280548290039055611e10565b6001600160a01b03821660009081526020819052604090208054820190555b816001600160a01b0316836001600160a01b03167fddf252ad1be2c89b69c2b068fc378daa952ba7f163c4a11628f55a4df523b3ef83604051611e5591815260200190565b60405180910390a3505050565b6040516001600160a01b03838116602483015260448201839052610abc91859182169063a9059cbb90606401611aa5565b611ebf7f0000000000000000000000000000000000000000000000000000000000000000853085611a70565b611ec983826121a0565b826001600160a01b0316846001600160a01b03167fdcbc1c05240f31ff3ad067ef1ee35ce4997762752e3a095284754544f4c709d78484604051611d3d929190918252602082015260400190565b600580546001600160a01b038381166001600160a01b0319831681179093556040519116919082907f8be0079c531659141344cd1fd0a4f28419497f9722a3daafe3b4186f6b6457e090600090a35050565b6000816001611f788286612609565b611f8291906125da565b610a5b91906126e7565b826001600160a01b0316856001600160a01b031614611fb057611fb0838683611355565b611fba83826121da565b611fe57f00000000000000000000000000000000000000000000000000000000000000008584611e62565b826001600160a01b0316846001600160a01b0316866001600160a01b03167ffbde797d201c681b91056529119e0b02407c7bb96a4a2c75c01fc9667232c8db858560405161203d929190918252602082015260400190565b60405180910390a45050505050565b60006120616001600160a01b03841683612210565b90508051600014158015612086575080806020019051810190612084919061281e565b155b15610abc57604051635274afe760e01b81526001600160a01b0384166004820152602401610c0c565b60008383028160001985870982811083820303915050806000036120e6578382816120dc576120dc612596565b0492505050610a5b565b8084116121065760405163227bc15360e01b815260040160405180910390fd5b6000848688096000868103871696879004966002600389028118808a02820302808a02820302808a02820302808a02820302808a02820302808a02909103029181900381900460010186841190950394909402919094039290920491909117919091029150509392505050565b600060028260038111156121895761218961283b565b6121939190612851565b60ff166001149050919050565b6001600160a01b0382166121ca5760405163ec442f0560e01b815260006004820152602401610c0c565b6121d660008383611d4b565b5050565b6001600160a01b03821661220457604051634b637e8f60e11b815260006004820152602401610c0c565b6121d682600083611d4b565b6060610a5b8383600084600080856001600160a01b031684866040516122369190612873565b60006040518083038185875af1925050503d8060008114612273576040519150601f19603f3d011682016040523d82523d6000602084013e612278565b606091505b5091509150611c6c86838360608261229357611b12826122da565b81511580156122aa57506001600160a01b0384163b155b156122d357604051639996b31560e01b81526001600160a01b0385166004820152602401610c0c565b5080610a5b565b8051156122ea5780518082602001fd5b604051630a12f52160e11b815260040160405180910390fd5b8015158114610c8b57600080fd5b80356001600160a01b038116811461232857600080fd5b919050565b6000806040838503121561234057600080fd5b823561234b81612303565b915061235960208401612311565b90509250929050565b60005b8381101561237d578181015183820152602001612365565b50506000910152565b60208152600082518060208401526123a5816040850160208701612362565b601f01601f19169190910160400192915050565b6000602082840312156123cb57600080fd5b5035919050565b600080604083850312156123e557600080fd5b6123ee83612311565b946020939093013593505050565b6000806040838503121561240f57600080fd5b82356123ee81612303565b60008060006060848603121561242f57600080fd5b61243884612311565b925061244660208501612311565b9150604084013590509250925092565b60008060006060848603121561246b57600080fd5b833561247681612303565b95602085013595506040909401359392505050565b6000806040838503121561249e57600080fd5b6124a783612311565b915060208301356124b781612303565b809150509250929050565b6000602082840312156124d457600080fd5b610a5b82612311565b600080604083850312156124f057600080fd5b8235915061235960208401612311565b60008060006060848603121561251557600080fd5b8335925061252560208501612311565b915061253360408501612311565b90509250925092565b6000806040838503121561254f57600080fd5b61234b83612311565b634e487b7160e01b600052601160045260246000fd5b808201828112600083128015821682158216171561258e5761258e612558565b505092915050565b634e487b7160e01b600052601260045260246000fd5b6000826125bb576125bb612596565b600160ff1b8214600019841416156125d5576125d5612558565b500590565b8181038181111561094c5761094c612558565b6000600160ff1b820161260257612602612558565b5060000390565b8082018082111561094c5761094c612558565b600181811c9082168061263057607f821691505b60208210810361265057634e487b7160e01b600052602260045260246000fd5b50919050565b808202811582820484141761094c5761094c612558565b818103600083128015838313168383128216171561268d5761268d612558565b5092915050565b60ff818116838216019081111561094c5761094c612558565b6000602082840312156126bf57600080fd5b5051919050565b6001600160a01b039390931683526020830191909152604082015260600190565b6000826126f6576126f6612596565b500490565b600181815b8085111561273657816000190482111561271c5761271c612558565b8085161561272957918102915b93841c9390800290612700565b509250929050565b60008261274d5750600161094c565b8161275a5750600061094c565b8160018114612770576002811461277a57612796565b600191505061094c565b60ff84111561278b5761278b612558565b50506001821b61094c565b5060208310610133831016604e8410600b84101617156127b9575081810a61094c565b6127c383836126fb565b80600019048211156127d7576127d7612558565b029392505050565b6000610a5b60ff84168361273e565b80820260008212600160ff1b8414161561280a5761280a612558565b818105831482151761094c5761094c612558565b60006020828403121561283057600080fd5b8151610a5b81612303565b634e487b7160e01b600052602160045260246000fd5b600060ff83168061286457612864612596565b8060ff84160691505092915050565b60008251612885818460208701612362565b919091019291505056fea2646970667358221220ead23902d99f08590d78cd89c4d708a52512b6826570942c58201143cbc0f9f264736f6c63430008180033","linkReferences":{}},"methodIdentifiers":{"BASIS_POINTS()":"e1f1c4a7","MAX_BORROWING_RATE()":"abdc5541","PRECISION()":"aaf5eb68","acceptOwnership()":"79ba5097","allowance(address,address)":"dd62ed3e","approve(address,uint256)":"095ea7b3","asset()":"38d52e0f","balanceOf(address)":"70a08231","borrowingPerSharePerSecond()":"67592602","convertToAssets(uint256)":"07a2d13a","convertToShares(uint256)":"c6e6f592","decimals()":"313ce567","decreasePosition(bool,uint256,uint256)":"28690da8","deposit(uint256,address)":"6e553f65","getCollateralPrice()":"f7683bbc","getIndexPrice()":"58c0994a","getNetPnl(bool,uint256)":"149c9404","getPendingBorrowingFees(address,bool)":"df7878c4","getPosition(bool,address)":"05ebef27","increasePosition(bool,uint256,uint256)":"d591bdc1","indexToken()":"e7d015f2","isPositionLiquidatable(address,bool)":"95e98e2f","liquidate(address,bool)":"3199ab01","liquidationFeeBp()":"e566a0a2","longPositions(address)":"ac511bc0","maxDeposit(address)":"402d267d","maxLeverage()":"ae3302c2","maxMint(address)":"c63d75b6","maxRedeem(address)":"d905777e","maxUtilizationRatio()":"7d245d1f","maxWithdraw(address)":"ce96cb77","mint(uint256,address)":"94bf804d","name()":"06fdde03","openInterestLong()":"310a2240","openInterestShort()":"794a9747","openInterestTokensLong()":"29f1ee19","openInterestTokensShort()":"d2f2b040","oracle()":"7dc0d1d0","owner()":"8da5cb5b","pendingOwner()":"e30c3978","previewDeposit(uint256)":"ef8b30f7","previewMint(uint256)":"b3d7f6b9","previewRedeem(uint256)":"4cdad506","previewWithdraw(uint256)":"0a28a477","redeem(uint256,address,address)":"ba087652","renounceOwnership()":"715018a6","setBorrowingPerSharePerSecond(uint256)":"d3aebfea","shortPositions(address)":"8055c2cc","symbol()":"95d89b41","totalAssets()":"01e1d114","totalCollateral()":"4ac8eb5f","totalDeposits()":"7d882097","totalSupply()":"18160ddd","transfer(address,uint256)":"a9059cbb","transferFrom(address,address,uint256)":"23b872dd","transferOwnership(address)":"f2fde38b","withdraw(uint256,address,address)":"b460af94"},"id":44}